:020000040800F2
:1000000000500020E9270008392800083928000896
:1000100039280008392800083928000800000000A5
:100020000000000000000000000000003928000867
:10003000392800080000000039280008F1250008D0
:10004000392800083928000839280008392800080C
:100050003928000839280008D52000083928000868
:1000600039280008392800083928000839280008EC
:1000700039280008392800083928000839280008DC
:1000800039280008392800083928000839280008CC
:10009000392800083928000839280008F920000804
:1000A00039280008392800083928000839280008AC
:1000B000392800080D2600083928000839280008CA
:1000C000392800083928000839280008392800088C
:1000D000392800083928000839280008392800087C
:1000E00039280008392800080000000039280008D5
:1000F000392800083928000839280008392800085C
:10010000392800083928000839280008392800084B
:10011000392800083928000839280008392800083B
:10012000392800083928000839280008392800082B
:1001300010B5054C237833B9044B13B10448AFF321
:1001400000800123237010BD9800002000000000F3
:100150008428000808B5034B1BB103490348AFF3DB
:10016000008008BD000000009C00002084280008DA
:1001700080B500AF00230F4A4FF47A71012002F0DE
:1001800069FA00230C4A4FF47A71022002F062FAF5
:1001900000230A4A2821032002F05CFA012002F021
:1001A0009FFA022002F088FA032002F085FA00BFCD
:1001B00080BD00BFC10100086502000805020008FB
:1001C00080B500AF0D4B1B78012B06D1032002F048
:1001D00073FA022002F084FA0DE0032002F080FAA4
:1001E000074B1B78032B03D1022002F065FA02E0D3
:1001F000022002F075FA00BF80BD00BF00000020A1
:100200000300002080B500AF114B1B78032B1BD8D7
:1002100001A252F823F000BF410200083902000891
:1002200031020008290200080A4800F083FA0CE0B5
:10023000094800F0B1F808E0084800F07BFA04E053
:10024000074800F0A9F800E000BF00BF80BD00BF74
:1002500003000020080000200C00002013000020F4
:100260001000002080B582B000AF2449244800F07F
:1002700043FB224A2249234800F02CFC0346FB7131
:10028000214B1B78002B05D0FB79002B02D00420DA
:1002900002F026FA1D4B1B78002B17D11C4B1B7844
:1002A000012B0ED0022B02D0002B11D011E0194BE4
:1002B00000229A70174B00225A70164B00221A70B7
:1002C00007E01549134800F017FB02E000BF00E00B
:1002D00000BF0E4B1B78002B06D10F4A0D4B116847
:1002E000186800F01BF805E0044A054B116818680F
:1002F00000F014F800BF0837BD4680BD0C00002098
:100300000800002010000020020000200100002052
:1003100004000020B8000020BC00002080B582B09E
:1003200000AF786039601B4B1B78022B03D0194B50
:100330001B78002B15D1786800F03EFE082002F0F3
:10034000BBF9092002F0B8F90A2002F0B5F905203E
:1003500002F0C6F9062002F0C3F9072002F0C0F946
:1003600014E0386800F03CFE052002F0A5F90620F4
:1003700002F0A2F9072002F09FF9082002F0B0F97C
:10038000092002F0ADF90A2002F0AAF900BF0837EF
:10039000BD4680BD0100002080B582B000AF78600E
:1003A000052002F089F9062002F086F9072002F004
:1003B00083F9354B1B78022B19D0032B2ED0012B40
:1003C00000D042E0786800F0C1F8082002F088F917
:1003D000092002F085F92D4B1B78092B03D90A203F
:1003E00002F07EF931E00A2002F066F92DE07B6828
:1003F0000133184600F078F8082002F071F90A205D
:1004000002F06EF9214B1B78092B03D9092002F069
:1004100067F91AE0092002F04FF916E07B68023311
:10042000184600F035F8092002F05AF90A2002F0C7
:1004300057F9164B1B78092B03D9082002F050F905
:1004400002E0082002F038F900BF104B1B78013B96
:10045000DAB20E4B1A700D4B1B78002B02D10B4BEE
:1004600014221A707B681A78597809020A439B781B
:100470001B041A43002362F31703184600F0B0FD73
:1004800000BF0837BD4680BDB40000201600002024
:1004900080B483B000AF7860124B1B78012B04D07E
:1004A000022B09D0002B14D014E07B681B78013399
:1004B000DAB27B681A700DE07B681B78002B04D0E1
:1004C0007B681B78013BDAB200E063227B681A701C
:1004D00000E000BF034B00221A7000BF0C37BD467E
:1004E00080BC7047B500002080B483B000AF786056
:1004F000154B1B78012B04D0022B0FD0002B1AD0E8
:100500001AE07B681B780C2B04D07B681B780133C6
:10051000DAB200E001227B681A700DE07B681B787C
:10052000012B04D07B681B78013BDAB200E00C227F
:100530007B681A7000E000BF034B00221A7000BFF6
:100540000C37BD4680BC7047B500002080B582B036
:1005500000AF78600C4B1B78012B04D0022B06D027
:10056000002B08D008E0786800F010F804E0786804
:1005700000F076F800E000BF034B00221A7000BFC5
:100580000837BD4680BD00BFB500002080B582B0F1
:1005900000AF78607B685B78013B0B2B5CD801A2D5
:1005A00052F823F0D5050008F3050008D50500082A
:1005B0003B060008D50500083B060008D5050008E5
:1005C000D50500083B060008D50500083B060008D5
:1005D000D50500087B681B781F2B03D17B6801229F
:1005E0001A7039E07B681B780133DAB27B681A70C5
:1005F00032E0786800F048FA0346002B0ED07B68A2
:100600001B781D2B03D17B6801221A7024E07B68C4
:100610001B780133DAB27B681A701DE07B681B78A7
:100620001C2B03D17B6801221A7015E07B681B78B4
:100630000133DAB27B681A700EE07B681B781E2BE0
:1006400003D17B6801221A7005E07B681B780133B7
:10065000DAB27B681A7000BF00BF0837BD4680BDA4
:1006600080B582B000AF78607B685B78013B0B2B74
:100670005CD801A252F823F0A9060008C7060008BA
:10068000A90600080F070008A90600080F070008C0
:10069000A9060008A90600080F070008A906000817
:1006A0000F070008A90600087B681B78012B03D1FF
:1006B0007B681F221A7039E07B681B78013BDAB235
:1006C0007B681A7032E0786800F0DEF90346002B90
:1006D0000ED07B681B78012B03D17B681D221A701A
:1006E00024E07B681B78013BDAB27B681A701DE05E
:1006F0007B681B78012B03D17B681C221A7015E0E4
:100700007B681B78013BDAB27B681A700EE07B686D
:100710001B78012B03D17B681E221A7005E07B68D1
:100720001B78013BDAB27B681A7000BF00BF083744
:10073000BD4680BD80B582B000AF7860082001F072
:10074000BBFF092001F0B8FF0A2001F0B5FF364BCE
:100750001B78022B1AD0032B2FD0012B00D043E0A3
:100760007B68184600F064F8052001F0B9FF062008
:1007700001F0B6FF2D4B1B78092B03D9072001F0A0
:10078000AFFF31E0072001F097FF2DE07B680133D8
:10079000184600F04DF8052001F0A2FF072001F0F7
:1007A0009FFF224B1B78092B03D9062001F098FFED
:1007B0001AE0062001F080FF16E07B68023318463D
:1007C00000F068F8072001F08BFF062001F088FF99
:1007D000164B1B78092B03D9052001F081FF02E09D
:1007E000052001F069FF00BF104B1B78013BDAB216
:1007F0000E4B1A700D4B1B78002B02D10B4B1422A1
:100800001A707B681A78597809020A439B781B048E
:100810001A43002362F31703184600F0CDFB00BF14
:100820000837BD4680BD00BFB4000020170000207F
:1008300080B483B000AF7860154B1B78012B04D0D7
:10084000022B0FD0002B1AD01AE07B681B783B2BB1
:1008500004D07B681B780133DAB200E000227B68A9
:100860001A700DE07B681B78002B04D07B681B7826
:10087000013BDAB200E03B227B681A7000E000BF67
:10088000034B00221A7000BF0C37BD4680BC704776
:10089000B500002080B483B000AF7860154B1B78A2
:1008A000012B04D0022B0FD0002B1AD01AE07B684A
:1008B0001B780C2B04D07B681B780133DAB200E084
:1008C00001227B681A700DE07B681B78012B04D035
:1008D0007B681B78013BDAB200E00C227B681A705F
:1008E00000E000BF034B00221A7000BF0C37BD466A
:1008F00080BC7047B500002080B582B000AF786042
:1009000039607B681B783B2B2AD17B6800221A70E8
:100910007B685B783B2B1CD17B6800225A707B681C
:100920009B780B2B06D17B680C229A70386800F0FC
:1009300021F81BE07B689B780C2B03D17B6801229C
:100940009A7013E07B689B780133DAB27B689A7007
:100950000CE07B685B780133DAB27B685A7005E0A3
:100960007B681B780133DAB27B681A7000BF0837E6
:10097000BD4680BD80B582B000AF78607B685B7893
:10098000013B0B2B7CD801A252F823F0BD090008D3
:10099000030A0008BD090008570A0008BD0900083D
:1009A000570A0008BD090008BD090008570A0008D9
:1009B000BD090008570A0008BD0900087B681B78BC
:1009C0001F2B17D17B685B780C2B09D17B68012228
:1009D0005A707B689B780133DAB27B689A7005E0C5
:1009E0007B685B780133DAB27B685A707B680122DE
:1009F0001A7045E07B681B780133DAB27B681A70A5
:100A00003EE0786800F040F80346002B11D07B6888
:100A10001B781D2B06D17B6803225A707B6801224C
:100A20001A702DE07B681B780133DAB27B681A708C
:100A300026E07B681B781C2B06D17B6803225A704A
:100A40007B6801221A701BE07B681B780133DAB2E5
:100A50007B681A7014E07B681B781E2B09D17B68B9
:100A60005B780133DAB27B685A707B6801221A70B6
:100A700005E07B681B780133DAB27B681A7000BF2F
:100A800000BF0837BD4680BD80B483B000AF78603A
:100A90007B689B781A460E4B83FB0213D911D31740
:100AA000CB1A4FF4C87101FB03F3D31A002B06D005
:100AB0007B689B7803F00303DBB2002B01D1012399
:100AC00000E0002318460C37BD4680BC704700BFCD
:100AD0001F85EB5180B485B000AFF860B9607A60D3
:100AE000FB681A787B681B789A421FD1FB685A789A
:100AF0007B685B789A4219D1FB689A787B689B780F
:100B00009A4213D1FB685A79BB689B789A420DD1FF
:100B1000FB681A79BB685B789A4207D1FB68DA7880
:100B2000BB681B789A4201D1012300E000231846DC
:100B30001437BD4680BC704780B582B000AF034615
:100B4000FB71084AFB791370064B1B78012B02D10D
:100B500000F060FC01E000F064FC00BF0837BD4617
:100B600080BD00BF0200002080B483B000AF034608
:100B7000FB71044AFB79137000BF0C37BD4680BC83
:100B8000704700BF0100002080B483B000AF03466F
:100B9000FB71044AFB79137000BF0C37BD4680BC63
:100BA000704700BF0000002080B483B000AF034650
:100BB000FB71044AFB79137000BF0C37BD4680BC43
:100BC000704700BFB500002080B483B000AF03467B
:100BD000FB71044AFB79137000BF0C37BD4680BC23
:100BE000704700BFB400002080B483B000AF03465C
:100BF000FB71044AFB79137000BF0C37BD4680BC03
:100C0000704700BF0300002080B483B000AF0346EC
:100C1000FB71044AFB79137000BF0C37BD4680BCE2
:100C2000704700BF0400002080B500AF214B0022B8
:100C30009A70204B00225A701E4B00221A7000F04E
:100C400031FD00231C4A0921052001F003FD022388
:100C50001A4A0921062001F0FDFC0423184A092143
:100C6000072001F0F7FC0023164A0921082001F0B3
:100C7000F1FC0523144A0921092001F0EBFC0223B1
:100C8000124A09210A2001F0E5FC052001F014FDBB
:100C9000062001F011FD072001F00EFD082001F0F3
:100CA0000BFD092001F008FD0A2001F005FD00BF41
:100CB00080BD00BFC0000020C90D00084D0D000818
:100CC000D10C00083D0F0008C10E0008450E0008B9
:100CD00080B582B000AF1A4B1B78FB71194B1B78A3
:100CE000002B12D0002000F0B5FDFA79164BA3FBC3
:100CF0000213D9080B469B000B445B00D31ADBB2EE
:100D00001946002000F0F6FD0CE0012000F0A2FDE5
:100D1000FB790D4AA2FB0323DB08DBB21946012055
:100D200000F0E8FD074B1B78002B0CBF01230023CC
:100D3000DBB21A46034B1A7000BF0837BD4680BDB0
:100D4000C000002018000020CDCCCCCC80B582B0F3
:100D500000AF1A4B5B78FB71194B1B78002B12D03C
:100D6000022000F077FDFA79164BA3FB0213D90895
:100D70000B469B000B445B00D31ADBB219460220E2
:100D800000F0B8FD0CE0032000F064FDFB790D4A93
:100D9000A2FB0323DB08DBB21946032000F0AAFD07
:100DA000074B1B78002B0CBF01230023DBB21A4634
:100DB000034B1A7000BF0837BD4680BDC00000203D
:100DC00019000020CDCCCCCC80B582B000AF1A4B3E
:100DD0009B78FB71194B1B78002B12D0042000F07C
:100DE00039FDFA79164BA3FB0213D9080B469B0079
:100DF0000B445B00D31ADBB21946042000F07AFDE5
:100E00000CE0052000F026FDFB790D4AA2FB032330
:100E1000DB08DBB21946052000F06CFD074B1B78A0
:100E2000002B0CBF01230023DBB21A46034B1A70C0
:100E300000BF0837BD4680BDC00000201A0000205A
:100E4000CDCCCCCC80B582B000AF1A4B1B78FB71F7
:100E5000194B1B78002B12D0002000F0FBFCFA7914
:100E6000164BA3FB0213D9080B469B000B445B00F7
:100E7000D31ADBB21946002000F03CFD0CE0012043
:100E800000F0E8FCFB790D4AA2FB0323DB08DBB290
:100E90001946012000F02EFD074B1B78002B0CBFDC
:100EA00001230023DBB21A46034B1A7000BF083738
:100EB000BD4680BDC40000201B000020CDCCCCCCA2
:100EC00080B582B000AF1A4B5B78FB71194B1B7871
:100ED000002B12D0022000F0BDFCFA79164BA3FBC8
:100EE0000213D9080B469B000B445B00D31ADBB2FC
:100EF0001946022000F0FEFC0CE0032000F0AAFCE2
:100F0000FB790D4AA2FB0323DB08DBB21946032061
:100F100000F0F0FC074B1B78002B0CBF01230023D3
:100F2000DBB21A46034B1A7000BF0837BD4680BDBE
:100F3000C40000201C000020CDCCCCCC80B582B0F9
:100F400000AF1A4B9B78FB71194B1B78002B12D00A
:100F5000042000F07FFCFA79164BA3FB0213D9089A
:100F60000B469B000B445B00D31ADBB219460420EE
:100F700000F0C0FC0CE0052000F06CFCFB790D4A91
:100F8000A2FB0323DB08DBB21946052000F0B2FC0C
:100F9000074B1B78002B0CBF01230023DBB21A4642
:100FA000034B1A7000BF0837BD4680BDC400002047
:100FB0001D000020CDCCCCCC80B483B000AF7860D5
:100FC000064B3A1D1268114619800233120C1A7032
:100FD00000BF0C37BD4680BC704700BFC00000207A
:100FE00080B483B000AF7860064B3A1D126811469A
:100FF00019800233120C1A7000BF0C37BD4680BC3A
:10100000704700BFC400002080B500AF324B012202
:101010005A70314B01221A702F4B01229A702E4BBD
:101020000122DA702C4B01221A7100F04BFA0920D0
:1010300000F0D6FF082000F0D3FF072000F0D0FF1B
:10104000062000F0CDFF052000F0CAFF172001F0B8
:10105000F1F9172001F0EEF9172001F0EBF9172054
:1010600001F0E8F9172001F0E5F90121052000F071
:1010700031FF0121062000F02DFF0121072000F0A3
:1010800029FF0121082000F025FF0121092000F09F
:1010900021FF0521114800F0B9FF0121092000F0CE
:1010A00053FF0121082000F04FFF0121072000F02D
:1010B0004BFF0121062000F047FF0121052000F031
:1010C00043FF0023064A2821002001F0C3FA002034
:1010D00001F0F2FA00BF80BDC8000020E51300084F
:1010E000E510000880B500AF244B1B78052B42D8D3
:1010F00001A252F823F000BF6B110008591100083B
:1011000047110008351100082311000811110008CB
:1011100000F036F8194B1B78013BDAB2174B1A7006
:101120002AE000F063F8154B1B78013BDAB2134B51
:101130001A7021E000F0B2F8104B1B78013BDAB2D4
:101140000E4B1A7018E000F0F3F80C4B1B78013BC3
:10115000DAB20A4B1A700FE000F020F9074B1B7847
:10116000013BDAB2054B1A7006E0044B05221A70F7
:10117000002001F0A1FA00BF00BF80BD21000020C7
:1011800080B582B000AF00F0C9F90346FB71FB796E
:10119000002B23D1134B1B79002B0CBF0123002301
:1011A000DBB21A460F4B1A710E4B1B79012B03D180
:1011B0000120FFF7E9FC11E00020FFF7E5FC0A4BF6
:1011C0001B781846FFF710FD074B1B78002B05D046
:1011D000054B1B78013BDAB2034B1A7000BF08378E
:1011E000BD4680BDC80000201F00002080B582B031
:1011F00000AF00F0ABF90346FB71FB79002B42D145
:10120000234B1B79012B21D1224B1B78012B08D0BA
:10121000022B02D0002B08D00BE00220FFF7A4FC29
:1012200007E00120FFF7A0FC03E00020FFF79CFC93
:1012300000BF184B1B78002B04D0164B1B78013BCA
:10124000DBB200E00223134A13701CE0104B1B7941
:10125000002B18D1104B1B78013BDAB20E4B1A70E1
:101260000D4B1B78002B06D00B4B1B78032B02D8A1
:10127000094B1B7800E00323074A1370064B1B78C9
:101280001846FFF7A1FC00BF0837BD4680BD00BF70
:10129000C8000020200000201E00002080B582B081
:1012A00000AF00F06BF90346FB71FB79002B36D1E0
:1012B0001D4B1B79012B15D11B4B9B78002B0CBFB1
:1012C00001230023DBB21A46174B9A70164B9B780A
:1012D000012B03D10020FFF72FFC20E00120FFF7B6
:1012E0002BFC1CE0104B1B79002B18D10F4B1B78EB
:1012F0000133DAB20D4B1A700C4B1B78032B06D856
:101300000A4B1B78002B02D0084B1B7800E001230E
:10131000064A1370054B1B781846FFF755FC00BFB3
:101320000837BD4680BD00BFC80000201E00002059
:1013300080B582B000AF00F039F90346FB71FB794C
:10134000002B21D1144B1B79012B15D1124B1B788B
:10135000002B0CBF01230023DBB21A460E4B1A7080
:101360000D4B1B78002B03D00120FFF74DFC0EE046
:101370000020FFF749FC0AE0074B1B79002B06D140
:101380000120FFF711FC02E00020FFF70DFC00BF79
:101390000837BD4680BD00BFC800002080B582B0C0
:1013A00000AF00F01BF90346FB71FB79002B0FD156
:1013B0000B4B1B79012B03D10220FFF725FC0AE020
:1013C000074B1B79002B06D10220FFF7EDFB02E053
:1013D0000020FFF7E9FB00BF0837BD4680BD00BF16
:1013E000C800002080B500AF002001F079F900BFEF
:1013F00080BD000080B500AF0023054A4FF47A712C
:10140000042001F027F9042001F056F900BF80BD47
:101410003114000880B500AF002000F0F7F800BFDD
:1014200080BD80B500AF002000F014F900BF80BD82
:1014300080B500AF032000F0E9F8184B1B78002BB3
:101440000CD0012000F0E2F8002000F0DFF80220CC
:1014500000F0DCF8114B00221A700BE0012000F0C4
:10146000F9F8002000F0F6F8022000F0F3F80B4B3A
:1014700001221A700A4B1B78013BDAB2084B1A7032
:10148000074B1B78002B07D1042001F015F900F061
:1014900009F8034B0A221A7000BF80BD2200002009
:1014A0002300002080B500AF012000F0D3F8002019
:1014B00000F0D0F8022000F0CDF8032000F0CAF8C8
:1014C00000BF80BD80B582B000AF0023FB711BE080
:1014D000FA79F97910480B465B000B440344023358
:1014E00018780D4913465B0013440B441A785B7857
:1014F0001B021A43002362F30F030146184600F053
:101500000DFEFB790133FB71FB79042BE0D900BFA1
:101510000837BD4680BD00BFA828000880B582B04E
:1015200000AF094B1A7B5B7B1B021A43002362F35B
:101530000F03184600F048FF0346FB71FB7918467D
:101540000837BD4680BD00BFA828000880B582B01E
:1015500000AF094B5A7A9B7A1B021A43002362F3AD
:101560000F03184600F030FF0346FB71FB79184665
:101570000837BD4680BD00BFA828000880B582B0EE
:1015800000AF094B9A79DB791B021A43002362F3FF
:101590000F03184600F018FF0346FB71FB7918464D
:1015A0000837BD4680BD00BFA828000880B582B0BE
:1015B00000AF094B1A785B781B021A43002362F3D1
:1015C0000F03184600F000FF0346FB71FB79184635
:1015D0000837BD4680BD00BFA828000880B582B08E
:1015E00000AF094BDA781B791B021A43002362F320
:1015F0000F03184600F0E8FE0346FB71FB7918461E
:101600000837BD4680BD00BFA828000880B582B05D
:1016100000AF0346FB71FA79F9790D480B465B0080
:101620000B44034402331878094913465B00134402
:101630000B441A785B781B021A43002362F30F03F2
:101640000146184600F060FE00BF0837BD4680BD69
:101650002400002080B582B000AF0346FB71FA7908
:10166000F9790F480B465B000B44034402331B78A7
:1016700083F00103D8B20A4913465B0013440B44BC
:101680001A785B781B021A43002362F30F030146AA
:10169000184600F039FE00BF0837BD4680BD00BFC8
:1016A0002400002080B582B000AF0023FB7100232E
:1016B000FB71C5E0FA79664913461B0113440B44DC
:1016C0000833DA791B7A1B021A43002362F30F03F3
:1016D0000221184600F022FDFA795D4913461B01EC
:1016E00013440B445A789B781B021A43002362F37D
:1016F0000F030221184600F011FDFA7954491346F0
:101700001B0113440B44DA781B791B021A43002394
:1017100062F30F030221184600F000FDFA794C49EC
:1017200013461B0113440B445A799B791B021A433D
:10173000002362F30F030221184600F0EFFCFA7950
:10174000434913461B0113440B44DA791B7A1B02ED
:101750001A43002362F30F030221184600F0DEFC57
:10176000FA793B4913461B0113440B4408335A785A
:101770009B781B021A43002362F30F0302211846D1
:1017800000F0CCFCFA79324913461B0113440B4498
:101790000833DA781B791B021A43002362F30F0324
:1017A0000221184600F0BAFCFA79294913461B01B8
:1017B00013440B4408335A799B791B021A430023C4
:1017C00062F30F030221184600F0A8FCFA792049C1
:1017D00013461B0113440B441B78012B12D1FA79D9
:1017E0001B4913461B0113440B440833DA791B7A57
:1017F0001B021A43002362F30F030121184600F075
:1018000083FD1AE0FA79124913461B0113440B4475
:101810001B78002B11D1FA790D4913461B01134493
:101820000B440833DA791B7A1B021A43002362F354
:101830000F030021184600F067FDFB790133FB71AF
:10184000FB79052B7FF636AF00BF0837BD4680BD5C
:101850003000002080B584B000AF0346FB71002348
:10186000FB730023FB733CE0FA7BFB799A4219D1AE
:10187000FA7BF97B1E480B461B010B440344187886
:101880001B4913461B0113440B440833DA791B7AB6
:101890001B021A43002362F30F030146184600F0AF
:1018A00033FD1BE0FA7BF97B11480B461B010B440F
:1018B00003441B7883F00103D8B20D4913461B0182
:1018C00013440B440833DA791B7A1B021A430023B2
:1018D00062F30F030146184600F016FDFB7B01334F
:1018E000FB73FB7B052BBFD900BF1037BD4680BD06
:1018F0003000002080B586B000AF03460A46FB7179
:101900001346BB716C4A07F10C0307CA03C31A8064
:10191000FB79184600F0CCF9FA79684913461B01A7
:1019200013440B441B78002B40F0CA80FA79BB7932
:1019300007F118010B4413F80C3C03F00103D8B273
:101940005E4913461B0113440B445A789B781B02D3
:101950001A43002362F30F030146184600F0D4FC3B
:10196000FA79BB7907F118010B4413F80C3C5B08BA
:10197000DBB203F00103D8B2504913461B011344F4
:101980000B44DA781B791B021A43002362F30F031E
:101990000146184600F0B8FCFA79BB7907F1180146
:1019A0000B4413F80C3C9B08DBB203F00103D8B2E4
:1019B000424913461B0113440B445A799B791B027D
:1019C0001A43002362F30F030146184600F09CFC03
:1019D000FA79BB7907F118010B4413F80C3CDB08CA
:1019E000DBB203F00103D8B2344913461B011344A0
:1019F0000B44DA791B7A1B021A43002362F30F03AC
:101A00000146184600F080FCFA79BB7907F118010D
:101A10000B4413F80C3C1B09DBB203F00103D8B2F2
:101A2000264913461B0113440B4408335A789B780C
:101A30001B021A43002362F30F030146184600F00D
:101A400063FCFA79BB7907F118010B4413F80C3CDD
:101A50005B09DBB203F00103D8B2184913461B013E
:101A600013440B440833DA781B791B021A43002312
:101A700062F30F030146184600F046FCFA79BB7981
:101A800007F118010B4413F80C3C9B09DBB203F07F
:101A90000103D8B2094913461B0113440B44083310
:101AA0005A799B791B021A43002362F30F03014604
:101AB000184600F029FCF5E09C28000830000020C2
:101AC000FA797A4913461B0113440B441B78012B06
:101AD00040F0E880FA79BB7907F118010B4413F85C
:101AE0000C3C03F00103002B0CBF01230023DBB2ED
:101AF00018466E4913461B0113440B445A789B78D1
:101B00001B021A43002362F30F030146184600F03C
:101B1000FBFBFA79BB7907F118010B4413F80C3C75
:101B20005B08DBB203F00103002B0CBF0123002391
:101B3000DBB218465D4913461B0113440B44DA78A7
:101B40001B791B021A43002362F30F030146184658
:101B500000F0DAFBFA79BB7907F118010B4413F8AE
:101B60000C3C9B08DBB203F00103002B0CBF0123EC
:101B70000023DBB218464D4913461B0113440B44A6
:101B80005A799B791B021A43002362F30F03014623
:101B9000184600F0B9FBFA79BB7907F118010B443C
:101BA00013F80C3CDB08DBB203F00103002B0CBF85
:101BB00001230023DBB218463C4913461B011344A2
:101BC0000B44DA791B7A1B021A43002362F30F03DA
:101BD0000146184600F098FBFA79BB7907F1180125
:101BE0000B4413F80C3C1B09DBB203F00103002B80
:101BF0000CBF01230023DBB218462C4913461B01FE
:101C000013440B4408335A789B781B021A43002371
:101C100062F30F030146184600F076FBFA79BB79B0
:101C200007F118010B4413F80C3C5B09DBB203F01D
:101C30000103002B0CBF01230023DBB218461B4914
:101C400013461B0113440B440833DA781B791B023B
:101C50001A43002362F30F030146184600F054FBB9
:101C6000FA79BB7907F118010B4413F80C3C9B0976
:101C7000DBB203F00103002B0CBF01230023DBB216
:101C800018460A4913461B0113440B4408335A797A
:101C90009B791B021A43002362F30F030146184687
:101CA00000F032FB00BF1837BD4680BD3000002079
:101CB00080B582B000AF0346FB71FA7984491346C0
:101CC0001B0113440B441B78002B7AD1FA7980490D
:101CD00013461B0113440B445A789B781B021A438A
:101CE000002362F30F030021184600F00DFBFA7980
:101CF000774913461B0113440B44DA781B791B0206
:101D00001A43002362F30F030021184600F0FCFA87
:101D1000FA796F4913461B0113440B445A799B7996
:101D20001B021A43002362F30F030021184600F040
:101D3000EBFAFA79664913461B0113440B44DA792E
:101D40001B7A1B021A43002362F30F03002118467B
:101D500000F0DAFAFA795E4913461B0113440B448A
:101D600008335A789B781B021A43002362F30F034F
:101D70000021184600F0C8FAFA79554913461B01AC
:101D800013440B440833DA781B791B021A430023EF
:101D900062F30F030021184600F0B6FAFA794C49B5
:101DA00013461B0113440B4408335A799B791B02D9
:101DB0001A43002362F30F030021184600F0A4FA2F
:101DC00082E0FA79424913461B0113440B441B7805
:101DD000012B79D1FA793E4913461B0113440B4478
:101DE0005A789B781B021A43002362F30F030121E8
:101DF000184600F089FAFA79354913461B01134455
:101E00000B44DA781B791B021A43002362F30F0399
:101E10000121184600F078FAFA792D4913461B0182
:101E200013440B445A799B791B021A43002362F333
:101E30000F030121184600F067FAFA792449134686
:101E40001B0113440B44DA791B7A1B021A4300234B
:101E500062F30F030121184600F056FAFA791C4983
:101E600013461B0113440B4408335A789B781B021A
:101E70001A43002362F30F030121184600F044FACD
:101E8000FA79134913461B0113440B440833DA78DB
:101E90001B791B021A43002362F30F03012118462A
:101EA00000F032FAFA790A4913461B0113440B4435
:101EB00008335A799B791B021A43002362F30F03FC
:101EC0000121184600F020FA00BF0837BD4680BD4A
:101ED0003000002080B485B000AF03460A46FB7195
:101EE0001346BB71FB799B08FB73FB7903F003037B
:101EF000FB71144AFB7B023352F82320FB799B00D1
:101F00000F2101FA03F3DB4318460E49FB7B024025
:101F1000023341F823200B4AFB7B023352F8232083
:101F2000B979FB799B0001FA03F318460549FB7B5D
:101F30000243023341F8232000BF1437BD4680BC62
:101F4000704700BF0000014080B483B000AF03467B
:101F50000A46FB711346BB71BB79012B0ED0022BD5
:101F600017D0002B2AD11D4B9B68FA79012101FA69
:101F700002F21146194A0B4393601FE0174BDB68CE
:101F8000FA79012101FA02F21146144A0B43D36097
:101F900014E0124B9B68FA79012101FA02F2114612
:101FA0000E4A0B4393600D4BDB68FA79012101FA6D
:101FB00002F21146094A0B43D36000BF074B1B686E
:101FC000FA79012101FA02F21146044A0B43136027
:101FD00000BF0C37BD4680BC704700BF0004014005
:101FE00080B483B000AF0346FB71074B1B68FA79DE
:101FF000012101FA02F21146034A0B43136000BFAC
:102000000C37BD4680BC70470004014080B483B0EB
:1020100000AF78600B46FB70FB780F2B52D801A203
:1020200052F823F0652000086D2000087520000894
:102030007D200008852000088D2000088D200008E4
:102040008D2000088D2000088D20000895200008B4
:102050009D200008A5200008AD200008B52000083C
:10206000BD2000081A4A7B6813602BE0184A7B6881
:10207000536027E0164A7B68936023E0144A7B682C
:10208000D3601FE0124A7B6813611BE0104A7B6833
:10209000536117E00E4A7B68936213E00C4A7B6839
:1020A000D3620FE00A4A7B6813630BE0084A7B683F
:1020B000536307E0064A7B68936303E0044A7B6846
:1020C000D36300BF00BF0C37BD4680BC704700BF64
:1020D000D000002080B500AF054B1B689847054B2A
:1020E0005B69044A43F00103536100BF80BD00BF38
:1020F000D00000200004014080B500AF054B5B69B3
:102100009847054B5B69044A43F00103536100BFE4
:1021100080BD00BFD00000200004014080B483B027
:1021200000AFB8800B46FB707B79012B4DD0022BA2
:1021300000F09280002B00D0DAE0FB78082B09D168
:102140006E4BDB683A79114601228A4011466B4A90
:102150000B43D3603B79072B17D8684B1B683A7940
:1021600092000F2101FA02F2D2431146634A0B405A
:102170001360624B1B68F9783A79920001FA02F217
:1021800011465E4A0B431360ADE03B790F2B00F222
:10219000AA803B79083BDBB23B71584B5B683A79CC
:1021A00092000F2101FA02F2D2431146534A0B402A
:1021B0005360524B5B68F9783A79920001FA02F267
:1021C00011464E4A0B4353608DE0FB78082B09D132
:1021D0004B4BDB683A79114601228A401146484A46
:1021E0000B43D3603B79072B17D8454B1B683A79D3
:1021F00092000F2101FA02F2D2431146404A0B40ED
:1022000013603F4B1B68F9783A79920001FA02F2A9
:1022100011463B4A0B43136067E03B790F2B64D8B0
:102220003B79083BDBB23B71354B5B683A799200F6
:102230000F2101FA02F2D2431146314A0B4053609A
:102240002F4B5B68F9783A79920001FA02F2114655
:102250002B4A0B43536048E0FB78082B09D1294BEC
:10226000DB683A79114601228A401146254A0B4320
:10227000D3603B79072B17D8224B1B683A79920021
:102280000F2101FA02F2D24311461E4A0B4013609D
:102290001C4B1B68F9783A79920001FA02F2114658
:1022A000184A0B43136022E03B790F2B1FD83B7970
:1022B000083BDBB23B71134B5B683A7992000F210C
:1022C00001FA02F2D24311460E4A0B4053600D4B05
:1022D0005B68F9783A79920001FA02F21146094AEC
:1022E0000B43536003E000BF02E000BF00E000BF0B
:1022F00000BF0C37BD4680BC704700BF00080140DE
:10230000000C01400010014080B483B000AFB880E1
:102310000B46FB707B79012B1AD0022B2ED0002BA1
:1023200000D046E0FB78012B07D13B791A46012308
:1023300003FA02F2214B1A6136E0FB78002B33D10D
:102340003B791A46012303FA02F21C4B5A612BE037
:10235000FB78012B07D13B791A46012303FA02F2DD
:10236000174B1A6122E0FB78002B1FD13B791A46EC
:10237000012303FA02F2124B5A6117E0FB78012B9A
:1023800007D13B791A46012303FA02F20D4B1A6179
:102390000EE0FB78002B0BD13B791A46012303FAA0
:1023A00002F2084B5A6103E000BF02E000BF00E008
:1023B00000BF00BF0C37BD4680BC7047000801401D
:1023C000000C01400010014080B485B000AFB8801F
:1023D0000023FB737B79012B0DD0022B14D0002B33
:1023E00000D01AE0104B9B683A79D340DBB203F07F
:1023F0000103FB7311E00D4B9B683A79D340DBB2CC
:1024000003F00103FB7308E0094B9B683A79D34062
:10241000DBB203F00103FB7300BFFB7B18461437EC
:10242000BD4680BC704700BF00080140000C014061
:102430000010014080B483B000AF0346FB71FB790C
:1024400003F01F03012202FA03F1054AFB795B093D
:10245000DBB242F8231000BF0C37BD4680BC70478A
:1024600000E100E080B483B000AF00237B60002374
:10247000FB701C4B5B681B4A43F001035360194B14
:102480005B68184A23F002035360164B1B68154A19
:1024900043F48033136002E07B6801337B60114BAF
:1024A0001B685B0C03F00103002B03D17B680E4A11
:1024B0009342F1D97B680C4A934201D90623FB7001
:1024C000084B1B68074A43F400231360054B5B6805
:1024D000044A23F080635360FB7818460C37BD46EE
:1024E00080BC7047001002409F86010080B485B018
:1024F00000AF03460A46FB711346BB710023FB7312
:10250000BB791F2B2BD8FB79012B0ED0022B17D0B8
:10251000002B20D1164B5B69BA79012101FA02F236
:102520001146134A0B4353611BE0114BDB69BA7927
:10253000012101FA02F211460D4A0B43D36110E06A
:102540000B4B9B69BA79012101FA02F21146084A44
:102550000B43936105E00123FB7300BF01E00123FE
:10256000FB73FB7B18461437BD4680BC704700BF29
:102570000010024080B400AF0A4B1B68094A23F0E8
:1025800004031360074B1B68064A23F00203136021
:10259000044B1B68034A23F00103136000BFBD46D0
:1025A00080BC704710E000E080B483B000AF78607A
:1025B00039600D4B00229A600B4B1B680A4A43F0AE
:1025C00002031360084A7B685360074B1B68064A86
:1025D00043F001031360054A3B68136000BF0C37EA
:1025E000BD4680BC704700BF10E000E01001002035
:1025F00080B500AF044B1B68002B02D0024B1B6858
:10260000984700BF80BD00BF1001002080B500AF1B
:10261000074B1B69064A23F001031361054B1B6836
:10262000002B02D0034B1B68984700BF80BD00BF42
:10263000000400401401002080B500AFFFF79AFFAE
:1026400003494FF47A70FFF7AFFF00BF80BD00BFB2
:102650000927000880B485B000AFB9607A603B609C
:102660000346FB73FB7B134A1B01134404331B68B3
:10267000002B1AD1FB7B0F4A1B011344BA681A6066
:10268000FB7B0C4A1B01134404337A681A60FB7B02
:10269000084A1B01134408333A681A60FB7B054A59
:1026A0001B0113440C3300221A7000BF1437BD46BF
:1026B00080BC70471801002080B483B000AF03468F
:1026C000FB71FB79054A1B0113440C3301221A707C
:1026D00000BF0C37BD4680BC704700BF180100200A
:1026E00080B483B000AF0346FB71FB79054A1B0140
:1026F00013440C3300221A7000BF0C37BD4680BC57
:10270000704700BF1801002080B582B000AF0023E1
:10271000FB713AE0FB79204A1B01134404331B6828
:10272000002B2FD0FB791C4A1B0113440C331B7860
:10273000002B27D1FB79184A1B01134408331B686F
:10274000002B13D1FB79144A1B0113441A68FB793F
:10275000013A11491B010B4408331A60FB790E4AF8
:102760001B01134404331B6898470BE0FB790A49AB
:102770001A010A4408321268013A07491B010B4446
:1027800008331A60FB790133FB71FB790A2BC1D93D
:1027900000BF0837BD4680BD1801002080B500AFDE
:1027A000FFF760FE02210220FFF7A0FE03210220B6
:1027B000FFF79CFE02210120FFF798FE0121012076
:1027C000FFF794FE00210220FFF790FEFEF72CFA9F
:1027D000FEF71AFCFDF7CCFCFEF70CFEFFF72CFF12
:1027E0000023184680BD00000D488546AFF30080E9
:1027F0000C480D490D4A002302E0D458C45004335C
:10280000C4188C42F9D30A4A0A4C002301E0136031
:102810000432A242FBD300F011F8FFF7BFFFFEE73E
:10282000005000200000002098000020C028000870
:1028300098000020C8010020FEE7000070B50025C8
:102840000C4E0D4CA41BA410A54209D100F01AF89F
:1028500000250A4E0A4CA41BA410A54205D170BD48
:1028600056F8253098470135EEE756F82530984759
:102870000135F2E7B8280008B8280008B828000891
:10288000BC280008F8B500BFF8BC08BC9E467047DD
:0C289000F8B500BFF8BC08BC9E467047BD
:10289C003F065B4F666D7D077F6F000008010807E0
:0C28AC00010809010806010805010800E8
:0428B80055010008BE
:0428BC0031010008DE
:1028C000010201020200000032230C00110C15006D
:1028D000110C1500240C1414010101010101030362
:1028E0000205010A0001010101010A01010B0101B8
:1028F00001000001000200030004000500060008BA
:1029000000010000010002000300040005000600B1
:102910000900000000010002000300040005000699
:10292000000A00000000010002000300040005008E
:1029300006000B0001000001000200030004000576
:102940000006000C0001000001000200030004006A
:0829500005000600070000006D
:04000005080027E9DF
:00000001FF
